:020000040800F2
:10000000000001200D0400085904000859040008EC
:1000100059040008590400085904000800000000B1
:10002000000000000000000000000000590400086B
:100030005904000800000000590400085904000891
:10004000590400085904000859040008590400081C
:10005000590400085904000859040008590400080C
:1000600059040008590400085904000859040008FC
:1000700059040008590400085904000859040008EC
:100080005904000859040008590400080000000041
:1000900000000000000000000000000059040008FB
:1000A00059040008590400085904000859040008BC
:1000B00059040008590400085904000859040008AC
:1000C000590400085904000859040008590400089C
:1000D00059040008590400085904000800000000F1
:1000E00059040008590400085904000800000000E1
:1000F000000000000000000000000000590400089B
:1001000000000000590400085904000859040008C0
:1001100000000000000000000000000000000000DF
:10012000590400085904000859040008590400083B
:10013000590400080000000000000000000000005A
:10014000000000000000000000000000590400084A
:10015000590400085904000859040008590400080B
:1001600059040008590400080000000000000000C5
:10017000000000000000000000000000000000007F
:10018000000000005904000800000000000000000A
:040190005904000806
:1001940010B5054C237833B9044B13B10448AFF3BD
:1001A40000800123237010BD140000200000000013
:1001B4005C04000808B5034B1BB103490348AFF3C3
:1001C400008008BD00000000180000205C04000846
:1001D40080B500AF00F005F800F044F800F07AF8BC
:1001E400FCE780B400AF1C4B1B681A681A4B1B68F1
:1001F40022F480321A60184B1B681A68164B1B686D
:1002040042F480321A6000BF134B1B681B6803F46E
:100214000033002BF8D0114B1B681A680F4B1B6876
:1002240022F003021A600D4B1B681A680B4B1B6803
:1002340042F001021A6000BF084B1B681B68084BA0
:100244001B681A68064B1B6842F002021A6000BF62
:10025400BD465DF8047B70470000002004000020C8
:100264000800002080B483B000AF00237B6000232B
:100274003B6020E0154B1B681A6801213B6801FABA
:1002840003F31946114B1B680A431A60104B1B6891
:100294001A6801217B6801FA03F319460C4B1B68A9
:1002A4000A431A603B6801333B607B6801337B601F
:1002B4003B6801333B603B68132BDBDD00BF00BFB1
:1002C4000C37BD465DF8047B704700BF0C0000206E
:1002D4001000002080B584B000AF00237B60C823E9
:1002E4003B6049E00023FB603DE0FB68032B36D014
:1002F400FB68042B33D00023BB6008E07A68BB683A
:100304009A4201DB00F044F8BB680133BB60BB6870
:10031400132BF3DD1D4B1B681B680121FA6801FADE
:1003240002F21340002B0DD0184B1B681A680121F0
:10033400FB6801FA03F3DB431946144B1B680A40BC
:100344001A600DE0114B1B681A680121FB6801FA61
:1003540003F319460D4B1B680A431A6000E000BF03
:10036400FB680133FB60FB68092BBEDD7B6801334E
:100374007B607B6801337B607A683B689A42B1DBBF
:1003840000BF00BF1037BD4680BD00BF1000002075
:1003940080B483B000AF01237B6001237B6002E063
:1003A4007B6801337B607B6846F2A7129342F7D9DE
:1003B40000BF00BF0C37BD465DF8047B704700BF2B
:1003C40070B50D4D0D4C641BA4100026A64209D136
:1003D4000B4D0C4C00F040F8641BA4100026A64200
:1003E40005D170BD55F8043B98470136EEE755F842
:1003F400043B98470136F2E77404000874040008CB
:100404007404000878040008DFF830D00C480D4963
:100414000D4A002302E0D458C4500433C4188C425B
:10042400F9D30A4A0A4C002301E013600432A242C1
:10043400FBD3FFF7C5FFFFF7CBFE70470000012099
:1004440000000020140000207C0400081400002098
:1004540030000020FEE70000F8B500BFF8BC08BC7F
:100464009E467047F8B500BFF8BC08BC9E4670476E
:04047400B9010008C2
:0404780095010008E2
:10047C000038024008380240303802400004024084
:04048C001404024012
:040000050800040DDE
:00000001FF
