:020000040800F2
:1000000000000120E5030008310400083104000865
:100010003104000831040008310400080000000029
:100020000000000000000000000000003104000893
:100030003104000800000000310400083104000809
:1000400031040008310400083104000831040008BC
:1000500031040008310400083104000831040008AC
:10006000310400083104000831040008310400089C
:10007000310400083104000831040008310400088C
:1000800031040008310400083104000800000000B9
:100090000000000000000000000000003104000823
:1000A000310400083104000831040008310400085C
:1000B000310400083104000831040008310400084C
:1000C000310400083104000831040008310400083C
:1000D0003104000831040008310400080000000069
:1000E0003104000831040008310400080000000059
:1000F00000000000000000000000000031040008C3
:100100000000000031040008310400083104000838
:1001100000000000000000000000000000000000DF
:1001200031040008310400083104000831040008DB
:100130003104000800000000000000000000000082
:100140000000000000000000000000003104000872
:1001500031040008310400083104000831040008AB
:100160003104000831040008000000000000000015
:10017000000000000000000000000000000000007F
:100180000000000031040008000000000000000032
:04019000310400082E
:1001940010B5054C237833B9044B13B10448AFF3BD
:1001A40000800123237010BD2C00002000000000FB
:1001B4003404000808B5034B1BB103490348AFF3EB
:1001C400008008BD00000000300000203404000856
:1001D40080B500AF00F007F800F050F800F060F8C8
:1001E40000F0A4F8FCE780B400AF204B1B681A6849
:1001F4001E4B1B6822F480321A601C4B1B681A6861
:100204001A4B1B6842F480321A6000BF174B1B68FC
:100214001B6803F40033002BF8D0154B1B681A68D5
:10022400134B1B6822F003021A60114B1B681A68F7
:100234000F4B1B6842F001021A6000BF0C4B1B6895
:100244001B680C4B1B681A680A4B1B6842F400328B
:100254001A60094B1B681A68074B1B6842F00402BA
:100264001A6000BFBD465DF8047B704700000020A3
:10027400040000200C0000200800002080B400AF1F
:10028400064B1B681A68054B1B6842F080621A60B3
:1002940000BFBD465DF8047B704700BF100000201E
:1002A40080B400AF1D4B1B681A681C4B1B6822F0FE
:1002B40001021A60194B1B681A68184B1B6842F03C
:1002C40002021A60154B1B681A68144B1B6822F053
:1002D40007021A60114B1B681A68104B1B6842F026
:1002E40080021A600E4B1B6800221A600D4B1B68BB
:1002F4004FF47A721A600C4B1B6841F288321A6010
:10030400064B1B681A68054B1B6842F001021A6011
:1003140000BFBD465DF8047B704700BF1800002095
:1003240020000020240000202800002080B400AF1A
:1003340000BF174B1B681B6803F00103002BF8D0A8
:10034400134B1B681A68124B1B6822F001021A60D7
:10035400104B1B681B6803F40053002B0AD00D4B91
:100364001B681B680B4A126823F47F5323F03F0376
:10037400136007E0074B1B681A68064B1B6842F4BE
:1003840000521A6000BFBD465DF8047B704700BF91
:100394001C0000201400002070B50D4D0D4C641B92
:1003A400A4100026A64209D10B4D0C4C00F040F8D5
:1003B400641BA4100026A64205D170BD55F8043B69
:1003C40098470136EEE755F8043B98470136F2E7C3
:1003D4004C0400084C0400084C04000850040008B5
:1003E400DFF830D00C480D490D4A002302E0D45800
:1003F400C4500433C4188C42F9D30A4A0A4C00236B
:1004040001E013600432A242FBD3FFF7C5FFFFF7FC
:10041400DFFE704700000120000000202C000020B7
:10042400540400082C00002048000020FEE70000CF
:10043400F8B500BFF8BC08BC9E467047F8B500BFCD
:08044400F8BC08BC9E4670479D
:04044C00B9010008EA
:04045000950100080A
:100454000038024008380240303802404438024034
:1004640000080240140802400044014010440140C6
:0C04740024440140284401402C44014075
:04000005080003E507
:00000001FF
