:020000040800F2
:10000000000001202D050008790500087905000889
:10001000790500087905000879050008000000004E
:10002000000000000000000000000000790500084A
:10003000790500080000000079050008790500082E
:100040007905000879050008790500087905000898
:100050007905000879050008790500087905000888
:100060007905000879050008790500087905000878
:100070007905000879050008790500087905000868
:1000800079050008790500087905000800000000DE
:1000900000000000000000000000000079050008DA
:1000A0007905000879050008790500087905000838
:1000B0007905000879050008790500087905000828
:1000C0007905000879050008790500087905000818
:1000D000790500087905000879050008000000008E
:1000E000790500087905000879050008000000007E
:1000F000000000000000000000000000790500087A
:10010000000000007905000879050008790500085D
:1001100000000000000000000000000000000000DF
:1001200079050008790500087905000879050008B7
:100130007905000800000000000000000000000039
:100140000000000000000000000000007905000829
:100150007905000879050008790500087905000887
:100160007905000879050008000000000000000083
:10017000000000000000000000000000000000007F
:1001800000000000790500080000000000000000E9
:0401900079050008E5
:1001940010B5054C237833B9044B13B10448AFF3BD
:1001A40000800123237010BD000000200000000027
:1001B4007C05000808B5034B1BB103490348AFF3A2
:1001C400008008BD00000000040000207C05000839
:1001D40080B582B000AF00F04FF800F073F800F083
:1001E400A5F84FF4A0737B601AE000BF1F4B1B6897
:1001F40003F00103002BF9D01C4B1B681B4A23F0AE
:10020400030313601A4A7B68136064214FF4C860C7
:1002140000F014F9174B64221A607B68013B7B6081
:100224007B68002BE1D100233B601AE000BF0F4B39
:100234001B6803F00103002BF9D00C4B1B680B4A1D
:1002440023F0030313600A4A3B68136064214FF4EC
:10025400C86000F0F3F8074B64221A603B6801336E
:100264003B603B68B3F5A07FE0DDBAE71044014092
:10027400344401402844014080B400AF00BF0E4B19
:100284001B6803F00203002BF9D00C4B1B680B4ACC
:1002940043F0020313600A4B1B68094A43F400331A
:1002A4001360074B1B68064A43F48023136000BFA6
:1002B400BD465DF8047B7047003802403038024088
:1002C4004438024080B400AF144B1B68134A23F433
:1002D40040331360114B1B68104A43F4003313601E
:1002E4000F4B1B680E4A43F4403313600D4B1B68DD
:1002F4000C4A43F4003313600B4B1B680A4A23F087
:100304000F031360084B1B68074A43F00303136091
:1003140000BFBD465DF8047B704700BF0004024087
:10032400080402400C0402402404024080B400AFDC
:100334003A4B1B68394A23F001031360384B1B689E
:10034400374A23F008031360354B1B68344A23F003
:1003540003031360324B1B68314A43F0600313609C
:100364002F4B1B682E4A43F0040313602D4B1B686C
:100374002C4A1B0C1B0413602A4B1B68294A43F0AC
:10038400A0031360284B1B68274A43F080031360C3
:10039400264B1B68254A1B0C1B041360234B1B684C
:1003A400224A43F4A0731360214B1B68204A1B0CA0
:1003B4001B0413601E4B1B681D4A43F47A731360BD
:1003C4001C4B1C4A1B681360144B1B68134A23F014
:1003D40002031360114B1B68104A23F008031360D7
:1003E4000E4B1B680D4A43F0010313600C4B1B6852
:1003F4000B4A43F0080313600F4B1B680E4A43F08B
:1004040003031360084B1B68074A43F0010313609E
:1004140000BFBD465DF8047B704700BF2044014027
:100424001844014034440140004401402C4401403C
:1004340028440140244401401444014080B483B062
:1004440000AF78603960204B1B681F4A43F00203F9
:1004540013601E4B1B681D4A23F0010313601C4BE1
:1004640000221A601B4A7B6813601B4A3B681360B6
:10047400154B1B68144A23F002031360124B1B68CC
:10048400114A43F0800313600F4B1B680E4A43F07C
:1004940004031360114B1B68104A43F003031360F9
:1004A400094B1B68084A43F00103136000BF074B64
:1004B4001B6803F00103002BF9D000BF00BF0C3709
:1004C400BD465DF8047B7047004801401048014078
:1004D40024480140284801402C4801401448014068
:1004E40070B50D4D0D4C641BA4100026A64209D115
:1004F4000B4D0C4C00F040F8641BA4100026A642DF
:1005040005D170BD55F8043B98470136EEE755F820
:10051400043B98470136F2E7940500089405000867
:100524009405000898050008DFF830D00C480D4900
:100534000D4A002302E0D458C4500433C4188C423A
:10054400F9D30A4A0A4C002301E013600432A242A0
:10055400FBD3FFF7C5FFFFF73BFE70470000012008
:1005640000000020000000209C050008000000207E
:100574001C000020FEE70000F8B500BFF8BC08BC72
:100584009E467047F8B500BFF8BC08BC9E4670474D
:04059400B9010008A1
:0405980095010008C1
:040000050800052DBD
:00000001FF
