:020000040800F2
:100000000000012069030008B5030008B5030008DB
:10001000B5030008B5030008B503000800000000A0
:10002000000000000000000000000000B503000810
:10003000B503000800000000B5030008B503000880
:10004000B5030008B5030008B5030008B5030008B0
:10005000B5030008B5030008B5030008B5030008A0
:10006000B5030008B5030008B5030008B503000890
:10007000B5030008B5030008B5030008B503000880
:10008000B5030008B5030008B50300080000000030
:10009000000000000000000000000000B5030008A0
:1000A000B5030008B5030008B5030008B503000850
:1000B000B5030008B5030008B5030008B503000840
:1000C000B5030008B5030008B5030008B503000830
:1000D000B5030008B5030008B503000800000000E0
:1000E000B5030008B5030008B503000800000000D0
:1000F000000000000000000000000000B503000840
:1001000000000000B5030008B5030008B5030008AF
:1001100000000000000000000000000000000000DF
:10012000B5030008B5030008B5030008B5030008CF
:10013000B5030008000000000000000000000000FF
:10014000000000000000000000000000B5030008EF
:10015000B5030008B5030008B5030008B50300089F
:10016000B5030008B503000800000000000000000F
:10017000000000000000000000000000000000007F
:1001800000000000B50300080000000000000000AF
:04019000B5030008AB
:1001940010B5054C237833B9044B13B10448AFF3BD
:1001A40000800123237010BD200000200000000007
:1001B400B803000808B5034B1BB103490348AFF368
:1001C400008008BD0000000024000020B8030008DF
:1001D40080B500AF00F005F800F044F800F07DF8B9
:1001E400FCE780B400AF1C4B1B681A681A4B1B68F1
:1001F40022F480321A60184B1B681A68164B1B686D
:1002040042F480321A6000BF134B1B681B6803F46E
:100214000033002BF8D0114B1B681A680F4B1B6876
:1002240022F003021A600D4B1B681A680B4B1B6803
:1002340042F001021A6000BF084B1B681B68084BA0
:100244001B681A68064B1B6842F002021A6000BF62
:10025400BD465DF8047B70470000002008000020C4
:100264000C00002080B400AF0E4B1B681A680D4BC5
:100274001B6822F030021A600A4B1B681A68094B8B
:100284001B6842F010021A60074B1B681A68064B81
:100294001B6842F004021A6000BFBD465DF8047B8F
:1002A400704700BF140000201C00002080B483B0FD
:1002B40000AF00237B6000237B6002E07B68013396
:1002C4007B607B6846F2A7129342F7D900BF00BF58
:1002D4000C37BD465DF8047B704780B400AF0E4B0D
:1002E4001B681B6803F00403002B08D00A4B1B682F
:1002F4001A68094B1B6822F007021A6007E0064BD4
:100304001B681A68044B1B6842F004021A6000BFA1
:10031400BD465DF8047B70471C00002070B50D4D90
:100324000D4C641BA4100026A64209D10B4D0C4CA5
:1003340000F040F8641BA4100026A64205D170BD4D
:1003440055F8043B98470136EEE755F8043B9847C7
:100354000136F2E7D0030008D0030008D0030008F8
:10036400D4030008DFF830D00C480D490D4A0023AF
:1003740002E0D458C4500433C4188C42F9D30A4A56
:100384000A4C002301E013600432A242FBD3FFF7BE
:10039400C5FFFFF71DFF704700000120000000208B
:1003A40020000020D8030008200000203C0000208A
:1003B400FEE70000F8B500BFF8BC08BC9E467047D5
:0C03C400F8B500BFF8BC08BC9E467047AE
:0403D000B901000867
:0403D4009501000887
:1003D80000380240043802400838024030380240F1
:1003E800443802400004024004040240140402405D
:040000050800036983
:00000001FF
