:020000040800F2
:1000000000000120D9030008250400082504000889
:10001000250400082504000825040008000000004D
:10002000000000000000000000000000250400089F
:10003000250400080000000025040008FD02000857
:1000400025040008250400082504000825040008EC
:1000500025040008250400082504000825040008DC
:1000600025040008250400082504000825040008CC
:1000700025040008250400082504000825040008BC
:1000800025040008250400082504000800000000DD
:10009000000000000000000000000000250400082F
:1000A000250400082504000825040008250400088C
:1000B000250400082504000825040008250400087C
:1000C000250400082504000825040008250400086C
:1000D000250400082504000825040008000000008D
:1000E000250400082504000825040008000000007D
:1000F00000000000000000000000000025040008CF
:10010000000000002504000825040008250400085C
:1001100000000000000000000000000000000000DF
:10012000250400082504000825040008250400080B
:10013000250400080000000000000000000000008E
:10014000000000000000000000000000250400087E
:1001500025040008250400082504000825040008DB
:10016000250400082504000800000000000000002D
:10017000000000000000000000000000000000007F
:10018000000000002504000800000000000000003E
:04019000250400083A
:1001940010B5054C237833B9044B13B10448AFF3BD
:1001A40000800123237010BD240000200000000003
:1001B4002804000808B5034B1BB103490348AFF3F7
:1001C400008008BD0000000028000020280400086A
:1001D40080B500AF00F007F800F046F800F0AEF884
:1001E40000F08AF8FEE780B400AF1C4B1B681A6865
:1001F4001A4B1B6822F480321A60184B1B681A6869
:10020400164B1B6842F480321A6000BF134B1B6804
:100214001B6803F40033002BF8D0114B1B681A68D9
:100224000F4B1B6822F003021A600D4B1B681A68FF
:100234000B4B1B6842F001021A6000BF084B1B689D
:100244001B68084B1B681A68064B1B6842F00402C3
:100254001A6000BFBD465DF8047B704700000020B3
:10026400040000200800002080B400AF0E4B1B687F
:100274001A680D4B1B6842F080621A600B4B1B68B6
:100284001A680A4B1B6842F400521A60084B1B6838
:100294001A68074B1B6842F400521A6000BFBD463F
:1002A4005DF8047B704700BF0C00002010000020A4
:1002B4001400002080B400AF0E4B1B681B6803F4CD
:1002C4000053002B08D00B4B1B681A68094B1B68A2
:1002D40022F400521A6007E0064B1B681A68054BAB
:1002E4001B6842F400521A6000BFBD465DF8047BEF
:1002F400704700BF1400002080B400AF0E4B1B6891
:100304001B6803F40053002B08D00B4B1B681A68BE
:10031400094B1B6822F400521A6007E0064B1B6865
:100324001A68054B1B6842F400521A6000BFBD46B0
:100334005DF8047B704700BF1400002080B400AF58
:100344000E4B1B681A680D4B1B6842F001021A60C1
:100354000A4B1B681A68094B1B6842F004021A60B6
:10036400074B1B68074A1A60074B1B6800221A6078
:1003740000BFBD465DF8047B704700BF1800002035
:100384001C0000203F787D012000002070B50D4D39
:100394000D4C641BA4100026A64209D10B4D0C4C35
:1003A40000F040F8641BA4100026A64205D170BDDD
:1003B40055F8043B98470136EEE755F8043B984757
:1003C4000136F2E740040008400400084004000835
:1003D40044040008DFF830D00C480D490D4A0023CE
:1003E40002E0D458C4500433C4188C42F9D30A4AE6
:1003F4000A4C002301E013600432A242FBD3FFF74E
:10040400C5FFFFF7E5FE7047000001200000002053
:10041400240000204804000824000020400000209C
:10042400FEE70000F8B500BFF8BC08BC9E46704764
:0C043400F8B500BFF8BC08BC9E4670473D
:04044000B9010008F6
:040444009501000816
:1004480000380240083802403038024000080240B4
:10045800040802401408024010E000E014E000E044
:0404680018E000E0B8
:04000005080003D913
:00000001FF
