:020000040800F2
:100000000000012091030008DD030008DD03000863
:10001000DD030008DD030008DD0300080000000028
:10002000000000000000000000000000DD030008E8
:10003000DD03000800000000DD030008DD03000808
:10004000DD030008DD030008DD030008DD03000810
:10005000DD030008DD030008DD030008DD03000800
:10006000DD030008DD030008DD030008DD030008F0
:10007000DD030008DD030008DD030008DD030008E0
:10008000DD030008DD030008DD03000800000000B8
:10009000000000000000000000000000DD03000878
:1000A000DD030008DD030008DD030008DD030008B0
:1000B000DD030008DD030008DD030008DD030008A0
:1000C000DD030008DD030008DD030008DD03000890
:1000D000DD030008DD030008DD0300080000000068
:1000E000DD030008DD030008DD0300080000000058
:1000F000000000000000000000000000DD03000818
:1001000000000000DD030008DD030008DD03000837
:1001100000000000000000000000000000000000DF
:10012000DD030008DD030008DD030008DD0300082F
:10013000DD030008000000000000000000000000D7
:10014000000000000000000000000000DD030008C7
:10015000DD030008DD030008DD030008DD030008FF
:10016000DD030008DD0300080000000000000000BF
:10017000000000000000000000000000000000007F
:1001800000000000DD030008000000000000000087
:04019000DD03000883
:1001940010B5054C237833B9044B13B10448AFF3BD
:1001A40000800123237010BD1C000020000000000B
:1001B400E003000808B5034B1BB103490348AFF340
:1001C400008008BD0000000020000020E0030008BB
:1001D40080B500AF00F005F800F056F800F07AF8AA
:1001E400FCE780B400AF244B1B681A68224B1B68E1
:1001F40022F480321A60204B1B681A681E4B1B685D
:1002040042F480321A6000BF1B4B1B681B6803F466
:100214000033002BF8D0194B1B681A68174B1B6866
:1002240022F440321A60154B1B681A68134B1B6882
:1002340042F480321A60124B1B681A68104B1B6818
:1002440022F003021A600E4B1B681A680C4B1B68E1
:1002540042F001021A6000BF094B1B681B68094B7E
:100264001B681A68074B1B6842F004021A6000BF3F
:10027400BD465DF8047B70470000002004000020A8
:10028400080000200C00002080B400AF0E4B1B6857
:100294001A680D4B1B6842F080621A600B4B1B6896
:1002A4001A680A4B1B6842F400521A60084B1B6818
:1002B4001A68074B1B6842F400521A6000BFBD461F
:1002C4005DF8047B704700BF10000020140000207C
:1002D4001800002080B500AF00F01CF80C4B1B6820
:1002E4001B6803F40053002B08D0094B1B681A68E1
:1002F400074B1B6822F400521A6007E0044B1B688A
:100304001A68034B1B6842F400521A6000BF80BD98
:100314001800002080B483B000AF01237B60012368
:100324007B6002E07B6801337B607B68044A934214
:10033400F8D300BF00BF0C37BD465DF8047B70479F
:10034400A025260070B50D4D0D4C641BA41000268D
:10035400A64209D10B4D0C4C00F040F8641BA410CC
:100364000026A64205D170BD55F8043B98470136D6
:10037400EEE755F8043B98470136F2E7F803000826
:10038400F8030008F8030008FC030008DFF830D085
:100394000C480D490D4A002302E0D458C4500433DC
:1003A400C4188C42F9D30A4A0A4C002301E01360B2
:1003B4000432A242FBD3FFF7C5FFFFF709FF7047E2
:1003C40000000120000000201C00002000040008A0
:1003D4001C00002038000020FEE70000F8B500BF34
:1003E400F8BC08BC9E467047F8B500BFF8BC08BC12
:0403F4009E4670476A
:0403F800B90100083F
:0403FC00950100085F
:1004000000380240043802400838024030380240C8
:0C041000000802400408024014080240EA
:04000005080003915B
:00000001FF
