:020000040800F2
:1000000000000120F10400083D0500083D0500083E
:100010003D0500083D0500083D0500080000000002
:100020000000000000000000000000003D05000886
:100030003D050008000000003D0500083D050008E2
:100040003D0500083D0500083D0500083D05000888
:100050003D0500083D0500083D0500083D05000878
:100060003D0500083D0500083D0500083D05000868
:100070003D0500083D0500083D0500083D05000858
:100080003D0500083D0500083D0500080000000092
:100090000000000000000000000000003D05000816
:1000A0003D050008150400083D0500083D05000851
:1000B0003D0500083D0500083D0500083D05000818
:1000C0003D0500083D0500083D0500083D05000808
:1000D0003D0500083D0500083D0500080000000042
:1000E0003D0500083D0500083D0500080000000032
:1000F0000000000000000000000000003D050008B6
:10010000000000003D0500083D0500083D05000811
:1001100000000000000000000000000000000000DF
:100120003D0500083D0500083D0500083D050008A7
:100130003D05000800000000000000000000000075
:100140000000000000000000000000003D05000865
:100150003D0500083D0500083D0500083D05000877
:100160003D0500083D0500080000000000000000FB
:10017000000000000000000000000000000000007F
:10018000000000003D050008000000000000000025
:040190003D05000821
:1001940010B5054C237833B9044B13B10448AFF3BD
:1001A40000800123237010BD5000002000000000D7
:1001B4004005000808B5034B1BB103490348AFF3DE
:1001C400008008BD00000000540000204005000825
:1001D40080B500AF00F009F800F052F800F018F90B
:1001E40000F044F900F072F8FEE780B400AF204B51
:1001F4001B681A681E4B1B6822F480321A601C4B61
:100204001B681A681A4B1B6842F480321A6000BFDC
:10021400174B1B681B6803F40033002BF8D0154BF5
:100224001B681A68134B1B6822F003021A60114BF7
:100234001B681A680F4B1B6842F001021A6000BF6A
:100244000C4B1B681B680C4B1B681A680A4B1B6819
:1002540042F400321A60094B1B681A68074B1B688A
:1002640042F004021A6000BFBD465DF8047B70478B
:1002740000000020040000200C00002008000020E2
:1002840080B400AF0E4B1B681A680D4B1B6842F01C
:1002940080621A600B4B1B681A680A4B1B6842F495
:1002A40000521A60084B1B681A68074B1B6842F41B
:1002B40000521A6000BFBD465DF8047B704700BF62
:1002C40010000020140000201800002080B400AFAB
:1002D4002D4B1B681A682C4B1B6822F001021A6014
:1002E400294B1B681A68284B1B6842F002021A60EB
:1002F400254B1B681A68244B1B6822F007021A60FE
:10030400214B1B681A68204B1B6822F00F021A60ED
:100314001D4B1B681A681C4B1B6842F080021A6054
:100324001A4B1B681A68194B1B6842F001021A60C9
:10033400174B1B681A68164B1B6842F001021A60BF
:10034400144B1B6800221A60134B1B684FF47A721B
:100354001A60124B1B6840F2E2421A60104B1B6891
:100364001A680F4B1B6822F001021A60064B1B68C7
:100374001A68054B1B6842F001021A6000BFBD46B3
:100384005DF8047B704700BF1C00002020000020A3
:10039400280000202C000020300000203400002021
:1003A4002400002080B400AF00BF174B1B681B68FB
:1003B40003F00103002BF8D0134B1B681A68124B8F
:1003C4001B6822F001021A60104B1B681B6803F4BF
:1003D4000053002B0AD00D4B1B681B680B4A126894
:1003E40023F47F5323F03F03136007E0074B1B689C
:1003F4001A68064B1B6842F400521A6000BFBD46DF
:100404005DF8047B704700BF240000201800002022
:1004140080B400AF134B1B681A68124B1B6822F0A0
:1004240001021A60104B1B681B6803F40053002B75
:100434000AD00D4B1B681B680B4A126823F47F53C8
:1004440023F03F03136007E0074B1B681A68064B51
:100454001B6842F400521A6000BFBD465DF8047B7D
:10046400704700BF240000201800002080B400AFB3
:100474000A4B1B681A68094B1B6842F080621A60B9
:10048400074B1B681A68064B1B6842F080621A60AF
:1004940000BFBD465DF8047B704700BF44000020E8
:1004A4003800002070B50D4D0D4C641BA4100026BF
:1004B400A64209D10B4D0C4C00F040F8641BA4106B
:1004C4000026A64205D170BD55F8043B9847013675
:1004D400EEE755F8043B98470136F2E75805000863
:1004E40058050008580500085C050008DFF830D0FE
:1004F4000C480D490D4A002302E0D458C45004337B
:10050400C4188C42F9D30A4A0A4C002301E0136050
:100514000432A242FBD3FFF7C5FFFFF759FE704731
:1005240000000120000000205000002060050008A9
:10053400500000206C000020FEE70000F8B500BF6A
:10054400F8BC08BC9E467047F8B500BFF8BC08BCB0
:040554009E46704708
:04055800B9010008DD
:04055C0095010008FD
:100560000038024008380240303802404438024027
:100570000008024004080240140802400044014000
:100580000C44014010440140144401402444014003
:10059000284401402C44014000E100E080E100E0FB
:1005A00000E200E080E200E000E300E000E400E0C0
:04000005080004F1FA
:00000001FF
