:020000040800F2
:100000000000012099040008E5040008E504000848
:10001000E5040008E5040008E5040008000000000D
:10002000000000000000000000000000E5040008DF
:10003000E504000800000000E5040008E5040008ED
:10004000E5040008E5040008E5040008E5040008EC
:10005000E5040008E5040008E5040008E5040008DC
:10006000E5040008E5040008E5040008E5040008CC
:10007000E5040008E5040008E5040008E5040008BC
:10008000E5040008E5040008E5040008000000009D
:10009000000000000000000000000000E50400086F
:1000A000E5040008E5040008E5040008E50400088C
:1000B000E5040008E5040008E5040008E50400087C
:1000C000E5040008E5040008E5040008E50400086C
:1000D000E5040008E5040008E5040008000000004D
:1000E000E5040008E5040008E5040008000000003D
:1000F000000000000000000000000000E50400080F
:1001000000000000E5040008E5040008E50400081C
:1001100000000000000000000000000000000000DF
:10012000E5040008E5040008E5040008E50400080B
:10013000E5040008000000000000000000000000CE
:10014000000000000000000000000000E5040008BE
:10015000E5040008E5040008E5040008E5040008DB
:10016000E5040008E50400080000000000000000AD
:10017000000000000000000000000000000000007F
:1001800000000000E504000800000000000000007E
:04019000E50400087A
:1001940010B5054C237833B9044B13B10448AFF3BD
:1001A40000800123237010BD1C000020000000000B
:1001B400E804000808B5034B1BB103490348AFF337
:1001C400008008BD0000000020000020E8040008B2
:1001D40080B500AF00F005F800F04CF800F09EF890
:1001E400FCE780B400AF204B1B681A681E4B1B68E9
:1001F40022F480321A601C4B1B681A681A4B1B6865
:1002040042F480321A6000BF174B1B681B6803F46A
:100214000033002BF8D0154B1B681A68134B1B686E
:1002240022F003021A60114B1B681A680F4B1B68FB
:1002340042F001021A6000BF0C4B1B681B680C4B98
:100244001B681A680A4B1B6842F002021A60084BCA
:100254001B681A68064B1B6842F001021A6000BF53
:10026400BD465DF8047B70470000002004000020B8
:100274000800002080B483B000AF05237B60002316
:100284003B6038E0214B1B681A6801213B6801FA86
:1002940003F319461D4B1B680A431A601C4B1B6869
:1002A4001A6801217B6801FA03F31946184B1B688D
:1002B4000A431A60174B1B681A6801213B6801FA4C
:1002C40003F31946134B1B680A431A60124B1B684D
:1002D4001A6801217B6801FA03F319460E4B1B6867
:1002E4000A431A603B6801333B607B6801337B60DF
:1002F4003B6801333B603B68132BC3DD00BF00BF89
:100304000C37BD465DF8047B704700BF0C0000202D
:1003140010000020140000201800002080B586B0D2
:1003240000AF0023FB60C8237B6069E000237B618E
:100334000523BB605BE000233B6108E0FA683B698E
:100344009A4201DB00F06AF83B6901333B613B6987
:10035400132BF3DD2F4B1B681B6801217A6901FA0B
:1003640002F21340002B24D02B4B1B681B68012185
:10037400BA6801FA02F21340002B1AD0254B1B680D
:100384001A6801217B6901FA03F3DB431946214B07
:100394001B680A401A60204B1B681A680121BB685D
:1003A40001FA03F3DB4319461B4B1B680A401A602E
:1003B40017E0184B1B681A6801217B6901FA03F3E3
:1003C4001946144B1B680A431A60134B1B681A68BE
:1003D4000121BB6801FA03F319460F4B1B680A435A
:1003E4001A607B6901337B61BB680133BB60BB6806
:1003F4000D2BA0DDFB680133FB60FB680133FB6060
:10040400FA687B689A4291DB00BF00BF1837BD468B
:1004140080BD00BF100000201800002080B483B00D
:1004240000AF01237B6001237B6002E07B68013322
:100434007B607B6846F2A7129342F7D900BF00BFE6
:100444000C37BD465DF8047B704700BF70B50D4D99
:100454000D4C641BA4100026A64209D10B4D0C4C74
:1004640000F040F8641BA4100026A64205D170BD1C
:1004740055F8043B98470136EEE755F8043B984796
:100484000136F2E700050008000500080005000831
:1004940004050008DFF830D00C480D490D4A00234C
:1004A40002E0D458C4500433C4188C42F9D30A4A25
:1004B4000A4C002301E013600432A242FBD3FFF78D
:1004C400C5FFFFF785FE70470000012000000020F3
:1004D4001C000020080500081C0000203800002033
:1004E400FEE70000F8B500BFF8BC08BC9E467047A4
:0C04F400F8B500BFF8BC08BC9E4670477D
:04050000B901000835
:040504009501000855
:1005080000380240083802403038024000000240FB
:0C051800140002400004024014040240E1
:040000050800049952
:00000001FF
