:020000040800F2
:100000000000012081030008CD030008CD03000893
:10001000CD030008CD030008CD0300080000000058
:10002000000000000000000000000000CD030008F8
:10003000CD03000800000000CD030008CD03000838
:10004000CD030008CD030008CD030008CD03000850
:10005000CD030008CD030008CD030008CD03000840
:10006000CD030008CD030008CD030008CD03000830
:10007000CD030008CD030008CD030008CD03000820
:10008000CD030008CD030008CD03000800000000E8
:10009000000000000000000000000000CD03000888
:1000A000CD030008CD030008CD030008CD030008F0
:1000B000CD030008CD030008CD030008CD030008E0
:1000C000CD030008CD030008CD030008CD030008D0
:1000D000CD030008CD030008CD0300080000000098
:1000E000CD030008CD030008CD0300080000000088
:1000F000000000000000000000000000CD03000828
:1001000000000000CD030008CD030008CD03000867
:1001100000000000000000000000000000000000DF
:10012000CD030008CD030008CD030008CD0300086F
:10013000CD030008000000000000000000000000E7
:10014000000000000000000000000000CD030008D7
:10015000CD030008CD030008CD030008CD0300083F
:10016000CD030008CD0300080000000000000000DF
:10017000000000000000000000000000000000007F
:1001800000000000CD030008000000000000000097
:04019000CD03000893
:1001940010B5054C237833B9044B13B10448AFF3BD
:1001A40000800123237010BD000000200000000027
:1001B400D003000808B5034B1BB103490348AFF350
:1001C400008008BD0000000004000020D0030008E7
:1001D40080B582B000AF054B7B6000F009F800F0F9
:1001E4001FF800F049F800F089F8FEE7E80300087A
:1001F40080B400AF084B1B68074A43F01003136038
:10020400064B1B68054A43F00103136000BFBD465B
:100214005DF8047B704700BF443802403038024028
:1002240080B400AF114B1B68104A23F440231360C1
:100234000E4B1B680D4A43F4002313600C4B1B68E0
:100244000B4A23F440231360094B1B68084A43F408
:1002540000231360074B1B68064A43F070031360C6
:1002640000BFBD465DF8047B704700BF000002403C
:10027400080002402400024080B400AF1B4B1B68FE
:100284001A4A23F440531360184B1B68174A43F46B
:1002940000531360164B1B68154A23F44053136034
:1002A400134B1B68124A43F400531360114B1B6831
:1002B400104A43F0040313600E4B1B680D4A43F4C9
:1002C400CE631360094B1B68084A43F008031360AC
:1002D40000BF094B1B6803F08003002BF9D000BF5B
:1002E40000BFBD465DF8047B704700BF0C100140A1
:1002F40010100140081001400010014080B400AF0C
:100304000A4B61221A6000BF094B1B6803F04003CB
:10031400002BF9D0064B1B68054A23F040031360F9
:1003240000BFBD465DF8047B704700BF0410014068
:100334000010014070B50D4D0D4C641BA410002637
:10034400A64209D10B4D0C4C00F040F8641BA410DC
:100354000026A64205D170BD55F8043B98470136E6
:10036400EEE755F8043B98470136F2E7EC03000842
:10037400EC030008EC030008F0030008DFF830D0B9
:100384000C480D490D4A002302E0D458C4500433EC
:10039400C4188C42F9D30A4A0A4C002301E01360C2
:1003A4000432A242FBD3FFF7C5FFFFF711FF7047EA
:1003B400000001200000002000000020F4030008D9
:1003C400000000201C000020FEE70000F8B500BF7C
:1003D400F8BC08BC9E467047F8B500BFF8BC08BC22
:0403E4009E4670477A
:0403E80053000000BE
:0403EC00B90100084B
:0403F000950100086B
:04000005080003816B
:00000001FF
