:020000040800F2
:100000000000012045040008910400089104000844
:100010009104000891040008910400080000000009
:100020000000000000000000000000009104000833
:1000300091040008000000009104000891040008E9
:10004000910400089104000891040008910400083C
:10005000910400089104000891040008910400082C
:10006000910400089104000891040008910400081C
:10007000910400089104000891040008910400080C
:100080009104000891040008910400080000000099
:1000900000000000000000000000000091040008C3
:1000A00091040008910400089104000891040008DC
:1000B00091040008910400089104000891040008CC
:1000C00091040008910400089104000891040008BC
:1000D0009104000891040008910400080000000049
:1000E0009104000891040008910400080000000039
:1000F0000000000000000000000000009104000863
:100100000000000091040008910400089104000818
:1001100000000000000000000000000000000000DF
:10012000910400089104000891040008910400085B
:100130009104000800000000000000000000000022
:100140000000000000000000000000009104000812
:10015000910400089104000891040008910400082B
:100160009104000891040008000000000000000055
:10017000000000000000000000000000000000007F
:1001800000000000910400080000000000000000D2
:0401900091040008CE
:1001940010B5054C237833B9044B13B10448AFF3BD
:1001A40000800123237010BD4C00002000000000DB
:1001B4009404000808B5034B1BB103490348AFF38B
:1001C400008008BD000000005000002094040008D6
:1001D40080B500AF00F005F800F04CF800F0ECF842
:1001E400FCE780B400AF204B1B681A681E4B1B68E9
:1001F40022F480321A601C4B1B681A681A4B1B6865
:1002040042F480321A6000BF174B1B681B6803F46A
:100214000033002BF8D0154B1B681A68134B1B686E
:1002240022F003021A60114B1B681A680F4B1B68FB
:1002340042F001021A6000BF0C4B1B681B680C4B98
:100244001B681A680A4B1B6842F001021A60084BCB
:100254001B681A68064B1B6842F002021A6000BF52
:10026400BD465DF8047B70470000002004000020B8
:100274000800002080B400AF1A4B1B681A68194BA1
:100284001B6842F080621A60174B1B681A68174B90
:100294001B6842F400521A60154B1B681A68144B11
:1002A4001B6842F080621A60124B1B681A68124B7A
:1002B4001B6842F400521A60104B1B681A680F4BFB
:1002C4001B6842F080621A600D4B1B681A680D4B64
:1002D4001B6842F400521A6000BFBD465DF8047BFF
:1002E400704700BF180000201C00002020000020E0
:1002F4000C00002010000020140000202400002026
:10030400280000202C00002080B400AF244B1B6880
:100314001A68234B1B6822F001021A60204B1B68E9
:100324001A681F4B1B6842F002021A601C4B1B68C0
:100334001A681B4B1B6822F007021A60184B1B68D3
:100344001A68174B1B6822F00F021A60144B1B68C3
:100354001A68134B1B6842F080021A60114B1B6829
:1003640000221A60104B1B6801221A600F4B1B6895
:100374000F4A1A600F4B1B681A680E4B1B6822F059
:1003840001021A60064B1B681A68054B1B6842F091
:1003940001021A6000BFBD465DF8047B704700BFD0
:1003A40030000020400000204400002048000020CD
:1003B400E76E03003800002080B500AFFFF7A4FF0C
:1003C4000C4B1B681B6803F40053002B08D0094B2B
:1003D4001B681A68074B1B6822F400521A6007E076
:1003E400044B1B681A68034B1B6842F400521A60E2
:1003F40000BF80BD2C00002070B50D4D0D4C641B5A
:10040400A4100026A64209D10B4D0C4C00F040F874
:10041400641BA4100026A64205D170BD55F8043B08
:1004240098470136EEE755F8043B98470136F2E762
:10043400AC040008AC040008AC040008B0040008D4
:10044400DFF830D00C480D490D4A002302E0D4589F
:10045400C4500433C4188C42F9D30A4A0A4C00230A
:1004640001E013600432A242FBD3FFF7C5FFFFF79C
:10047400AFFE704700000120000000204C00002067
:10048400B40400084C00002068000020FEE70000CF
:10049400F8B500BFF8BC08BC9E467047F8B500BF6D
:0804A400F8BC08BC9E4670473D
:0404AC00B90100088A
:0404B00095010008AA
:1004B400003802400838024030380240000402404C
:1004C40004040240140402400000024004000240FC
:1004D40014000240000802400408024014080240CC
:1004E400004401400C4401401044014014440140C4
:0C04F40024440140284401402C440140F5
:0400000508000445A6
:00000001FF
