:020000040800F2
:100000000000012099030008E5030008E50300084B
:10001000E5030008E5030008E50300080000000010
:10002000000000000000000000000000E5030008E0
:10003000E503000800000000E5030008E5030008F0
:10004000E5030008E5030008E5030008E5030008F0
:10005000E5030008E5030008E5030008E5030008E0
:10006000E5030008E5030008E5030008E5030008D0
:10007000E5030008E5030008E5030008E5030008C0
:10008000E5030008E5030008E503000800000000A0
:10009000000000000000000000000000E503000870
:1000A000E5030008E5030008E5030008E503000890
:1000B000E5030008E5030008E5030008E503000880
:1000C000E5030008E5030008E5030008E503000870
:1000D000E5030008E5030008E50300080000000050
:1000E000E5030008E5030008E50300080000000040
:1000F000000000000000000000000000E503000810
:1001000000000000E5030008E5030008E50300081F
:1001100000000000000000000000000000000000DF
:10012000E5030008E5030008E5030008E50300080F
:10013000E5030008000000000000000000000000CF
:10014000000000000000000000000000E5030008BF
:10015000E5030008E5030008E5030008E5030008DF
:10016000E5030008E50300080000000000000000AF
:10017000000000000000000000000000000000007F
:1001800000000000E503000800000000000000007F
:04019000E50300087B
:1001940010B5054C237833B9044B13B10448AFF3BD
:1001A40000800123237010BD1C000020000000000B
:1001B400E803000808B5034B1BB103490348AFF338
:1001C400008008BD0000000020000020E8030008B3
:1001D40080B500AF00F005F800F070F800F094F876
:1001E400FCE780B400AF314B1B681A682F4B1B68C7
:1001F40022F03F021A602D4B1B681A682B4B1B68B8
:1002040042F005021A60294B1B681B68274A1268D2
:1002140023F4FF4323F040031360244B1B681A6844
:10022400224B1B6842F420621A60204B1B681A6838
:100234001E4B1B6822F440321A601C4B1B681A6860
:100244001A4B1B6842F400321A60184B1B681A6878
:10025400164B1B6842F480021A60154B1B681A681F
:10026400134B1B6842F080721A60124B1B681A68A9
:10027400104B1B6822F003021A600E4B1B681A68AD
:100284000C4B1B6842F002021A6000BF094B1B684A
:100294001B68094B1B681A68074B1B6842F0040271
:1002A4001A6000BFBD465DF8047B7047040000205F
:1002B40000000020080000200C00002080B400AFE3
:1002C4000E4B1B681A680D4B1B6842F080621A6063
:1002D4000B4B1B681A680A4B1B6842F400521A60E5
:1002E400084B1B681A68074B1B6842F400521A60DB
:1002F40000BFBD465DF8047B704700BF10000020BE
:10030400140000201800002080B400AF0E4B1B68BE
:100314001B6803F40053002B08D00B4B1B681A68AE
:10032400094B1B6822F400521A6007E0064B1B6855
:100334001A68054B1B6842F400521A6000BFBD46A0
:100344005DF8047B704700BF1800002070B50D4DA8
:100354000D4C641BA4100026A64209D10B4D0C4C75
:1003640000F040F8641BA4100026A64205D170BD1D
:1003740055F8043B98470136EEE755F8043B984797
:100384000136F2E700040008000400080004000835
:1003940004040008DFF830D00C480D490D4A00234E
:1003A40002E0D458C4500433C4188C42F9D30A4A26
:1003B4000A4C002301E013600432A242FBD3FFF78E
:1003C400C5FFFFF705FF7047000001200000002073
:1003D4001C000020080400081C0000203800002035
:1003E400FEE70000F8B500BFF8BC08BC9E467047A5
:0C03F400F8B500BFF8BC08BC9E4670477E
:04040000B901000836
:040404009501000856
:1004080000380240043802400838024030380240C0
:0C041800000802400408024014080240E2
:040000050800039953
:00000001FF
