:020000040800F2
:1000000000000120B90300080504000805040008E9
:1000100005040008050400080504000800000000AD
:1000200000000000000000000000000005040008BF
:10003000050400080000000005040008050400088D
:10004000050400080504000805040008050400086C
:10005000050400080504000805040008050400085C
:10006000050400080504000805040008050400084C
:10007000050400080504000805040008050400083C
:10008000050400080504000805040008000000003D
:10009000000000000000000000000000050400084F
:1000A000050400080504000805040008050400080C
:1000B00005040008050400080504000805040008FC
:1000C00005040008050400080504000805040008EC
:1000D00005040008050400080504000800000000ED
:1000E00005040008050400080504000800000000DD
:1000F00000000000000000000000000005040008EF
:1001000000000000050400080504000805040008BC
:1001100000000000000000000000000000000000DF
:10012000050400080504000805040008050400088B
:1001300005040008000000000000000000000000AE
:10014000000000000000000000000000050400089E
:10015000050400080504000805040008050400085B
:10016000050400080504000800000000000000006D
:10017000000000000000000000000000000000007F
:10018000000000000504000800000000000000005E
:04019000050400085A
:1001940010B5054C237833B9044B13B10448AFF3BD
:1001A40000800123237010BD000000200000000027
:1001B4000804000808B5034B1BB103490348AFF317
:1001C400008008BD000000000400002008040008AE
:1001D40080B582B000AF064B7B6000F00BF800F0F6
:1001E40021F800F04BF8786800F0AAF8FEE700BFA9
:1001F4002004000880B400AF084B1B68074A43F092
:1002040010031360064B1B68054A43F00103136097
:1002140000BFBD465DF8047B704700BF4438024010
:100224003038024080B400AF114B1B68104A23F4ED
:10023400402313600E4B1B680D4A43F400231360E4
:100244000C4B1B680B4A23F440231360094B1B68B7
:10025400084A43F400231360074B1B68064A43F023
:100264007003136000BFBD465DF8047B704700BF98
:1002740000000240080002402400024080B400AFA5
:100284001B4B1B681A4A23F440531360184B1B681A
:10029400174A43F400531360164B1B68154A23F4A2
:1002A40040531360134B1B68124A43F4005313600A
:1002B400114B1B68104A43F0040313600E4B1B6878
:1002C4000D4A43F4CE631360094B1B68084A43F09C
:1002D4000803136000BF094B1B6803F08003002B65
:1002E400F9D000BF00BFBD465DF8047B704700BF76
:1002F4000C10014010100140081001400010014092
:1003040080B483B000AF0346FB710B4AFB791360E2
:1003140000BF0A4B1B6803F04003002BF9D0074BC6
:100324001B68064A23F04003136000BF0C37BD4628
:100334005DF8047B704700BF0410014000100140C9
:1003440080B582B000AF786007E07B681B78184600
:10035400FFF7D6FF7B6801337B607B681B78002B3B
:10036400F3D100BF00BF0837BD4680BD70B50D4D49
:100374000D4C641BA4100026A64209D10B4D0C4C55
:1003840000F040F8641BA4100026A64205D170BDFD
:1003940055F8043B98470136EEE755F8043B984777
:1003A4000136F2E734040008340400083404000879
:1003B40038040008DFF830D00C480D490D4A0023FA
:1003C40002E0D458C4500433C4188C42F9D30A4A06
:1003D4000A4C002301E013600432A242FBD3FFF76E
:1003E400C5FFFFF7F5FE7047000001200000002064
:1003F400000000203C040008000000201C00002035
:10040400FEE70000F8B500BFF8BC08BC9E46704784
:0C041400F8B500BFF8BC08BC9E4670475D
:100420005363686F6F6C206F66206C696E75780A15
:040430000D000000BB
:04043400B901000802
:040438009501000822
:04000005080003B933
:00000001FF
