:020000040800F2
:1000000000000120D10800081D0900081D09000892
:100010001D0900081D0900081D0900080000000056
:100020000000000000000000000000001D090008A2
:100030001D090008000000001D0900081D09000836
:100040001D0900081D0900081D0900081D090008F8
:100050001D0900081D0900081D0900081D090008E8
:100060001D0900081D0900081D0900081D090008D8
:100070001D0900081D0900081D0900081D090008C8
:100080001D0900081D0900081D09000800000000E6
:100090000000000000000000000000001D09000832
:1000A0001D0900081D0900081D0900081D09000898
:1000B0001D0900081D0900081D0900081D09000888
:1000C0001D0900081D0900081D0900081D09000878
:1000D0001D0900081D0900081D0900080000000096
:1000E0001D0900081D0900081D0900080000000086
:1000F0000000000000000000000000001D090008D2
:10010000000000001D0900081D0900081D09000865
:1001100000000000000000000000000000000000DF
:100120001D0900081D0900081D0900081D09000817
:100130001D09000800000000000000000000000091
:100140000000000000000000000000001D09000881
:100150001D0900081D0900081D0900081D090008E7
:100160001D0900081D090008000000000000000033
:10017000000000000000000000000000000000007F
:10018000000000001D090008000000000000000041
:040190001D0900083D
:1001940010B5054C237833B9044B13B10448AFF3BD
:1001A40000800123237010BD000000200000000027
:1001B4002009000808B5034B1BB103490348AFF3FA
:1001C400008008BD00000000040000202009000891
:1001D40080B584B000AF294BFB6000237B6000F046
:1001E40053F800F0FDF800F0E7FA00F077F900F0BA
:1001F4007BF806E0FB685A1CFA601B78184600F08E
:1002040037F9FB681B78002BF4D100F019FB386038
:100214003B689B083A6813447B6000BF184B1B681B
:1002240003F00103002BF9D0154B1B68144A23F08B
:1002340003031360134A7B6813601023BB6012E04E
:100244000122BB6802FA03F31A463B681340002BF1
:1002540003D0312000F00CF902E0302000F008F95E
:10026400BB68013BBB60BB68002BE9DA0D2000F0E2
:10027400FFF80A2000F0FCF8C7E700BF38090008BF
:10028400104401403444014080B400AF144B1B6857
:10029400134A43F010031360124B1B68114A43F0D6
:1002A400010313600F4B1B680E4A43F002031360F3
:1002B4000B4B1B680A4A43F400331360084B1B685A
:1002C400074A43F480231360054B1B68044A43F434
:1002D4008073136000BFBD465DF8047B704700BFA8
:1002E400443802403038024080B400AF354B1B68BC
:1002F400344A23F440231360324B1B68314A43F4DD
:10030400002313602F4B1B682E4A23F44013136001
:100314002C4B1B682B4A43F4001313602A4B1B68B5
:10032400294A23F440231360274B1B68264A43F4CD
:1003340000231360244B1B68234A23F440131360E7
:10034400214B1B68204A43F4001313601F4B1B68A6
:100354001E4A43F0700313601C4B1B681B4A43F492
:10036400E06313601A4B1B68194A23F4403313608B
:10037400174B1B68164A43F400331360154B1B6874
:10038400144A03F440331360134B1B68124A43F4BA
:1003940000331360114B1B68104A23F00F031360E2
:1003A4000E4B1B680D4A43F003031360054B1B6897
:1003B400044A43F00303136000BFBD465DF8047BA9
:1003C400704700BF000002400800024024000240C1
:1003D40000040240080402400C04024024040240C9
:1003E40080B400AF1E4B1B681D4A23F440531360B6
:1003F4001B4B1B681A4A43F400531360194B1B68C8
:10040400184A23F440531360164B1B68154A43F4EF
:1004140000531360144B1B68134A43F00303136027
:10042400114B1B68104A43F4D06313600C4B1B68D8
:100434000B4A43F008031360094B1B68084A43F056
:100444000403136000BF094B1B6803F08003002BF7
:10045400F9D000BF00BFBD465DF8047B704700BF04
:100464000C10014010100140081001400010014020
:1004740080B483B000AF0346FB710B4AFB79136071
:1004840000BF0A4B1B6803F04003002BF9D0074B55
:100494001B68064A23F04003136000BF0C37BD46B7
:1004A4005DF8047B704700BF041001400010014058
:1004B40080B400AF00BF074B1B6803F02003002B80
:1004C400F9D0054B1B68DBB21846BD465DF8047BCA
:1004D400704700BF001001400410014080B400AF19
:1004E4003A4B1B68394A23F001031360384B1B68ED
:1004F400374A23F008031360354B1B68344A23F052
:1005040003031360324B1B68314A43F060031360EA
:100514002F4B1B682E4A43F0040313602D4B1B68BA
:100524002C4A1B0C1B0413602A4B1B68294A43F0FA
:100534000C031360284B1B68274A43F080031360A5
:10054400264B1B68254A1B0C1B041360234B1B689A
:10055400224A43F448631360214B1B68204A1B0C56
:100564001B0413601E4B1B681D4A43F06403136095
:100574001C4B1C4A1B681360144B1B68134A23F062
:1005840002031360114B1B68104A23F00803136025
:100594000E4B1B680D4A43F0010313600C4B1B68A0
:1005A4000B4A43F0080313600F4B1B680E4A43F0D9
:1005B40003031360084B1B68074A43F001031360ED
:1005C40000BFBD465DF8047B704700BF2044014076
:1005D4001844014034440140004401402C4401408B
:1005E40028440140244401401444014080B483B0B1
:1005F40000AF78603960204B1B681F4A43F0020348
:1006040013601E4B1B681D4A23F0010313601C4B2F
:1006140000221A601B4A7B6813601B4A3B68136004
:10062400154B1B68144A23F002031360124B1B681A
:10063400114A43F0800313600F4B1B680E4A43F0CA
:1006440004031360114B1B68104A43F00303136047
:10065400094B1B68084A43F00103136000BF074BB2
:100664001B6803F00103002BF9D000BF00BF0C3757
:10067400BD465DF8047B70470048014010480140C6
:1006840024480140284801402C48014014480140B6
:1006940080B582B000AF0023FB7000237B6000BFF5
:1006A400434B1B6803F00103002BF9D0404B1B683C
:1006B4003F4A23F0030313603E4B4FF4A0721A60C9
:1006C40042F210714FF47A50FFF790FF00BF384B9D
:1006D4001B6803F00103002BF9D0354B1B68344A27
:1006E40023F003031360334BA0221A6042F210710B
:1006F4004FF47A50FFF77AFFA0237B60FFF7D8FE10
:100704000346FB70FB78302B12D100237B6000BFC3
:10071400274B1B6803F00103002BF9D0244B1B6803
:10072400234A23F003031360224A7B6813603AE0F0
:10073400FB78612B1AD17B6801337B607B68B3F54E
:10074400A07F10D800BF1A4B1B6803F00103002BD5
:10075400F9D0174B1B68164A23F003031360154A9C
:100764007B68136002E04FF4A0737B60FB78622B1C
:10077400C4D17B68013B7B607B689F2B10D900BF91
:100784000B4B1B6803F00103002BF9D0084B1B68CB
:10079400074A23F003031360064A7B681360ADE73E
:1007A400A0237B60AAE700BF0837BD4680BD00BF19
:1007B400104401403444014080B400AF1A4B1B681C
:1007C400194A23F03F031360184B1B68174A43F080
:1007D40001031360164B1B68154A43F002031360B0
:1007E400144B1B68134A23F040731360114B1B68AE
:1007F400104A43F0007313600E4B1B680D4A23F438
:10080400604313600C4B1B680B4A23F01F031360F7
:100814000A4B1B68094A23F44033136000BFBD46EA
:100824005DF8047B704700BF0020014008200140B0
:1008340010200140042001403420014004230140E1
:1008440080B483B000AF00237B600B4B1B680A4A63
:1008540043F08043136000BF084B1B6803F002039E
:10086400002BF9D0064B1B687B607B6818460C375D
:10087400BD465DF8047B704708200140002001401C
:100884004C20014070B50D4D0D4C641BA410002686
:10089400A64209D10B4D0C4C00F040F8641BA41087
:1008A4000026A64205D170BD55F8043B9847013691
:1008B400EEE755F8043B98470136F2E74C09000887
:1008C4004C0900084C09000850090008DFF830D032
:1008D4000C480D490D4A002302E0D458C450043397
:1008E400C4188C42F9D30A4A0A4C002301E013606D
:1008F4000432A242FBD3FFF7C5FFFFF769FC704740
:10090400000001200000002000000020540900081D
:10091400000000201C000020FEE70000F8B500BF26
:10092400F8BC08BC9E467047F8B500BFF8BC08BCCC
:040934009E46704724
:100938005363686F6F6C206F66206C696E75780AF8
:040948000D0000009E
:04094C00B9010008E5
:040950009501000805
:04000005080008D116
:00000001FF
