:020000040800F2
:100000000000012061030008AD030008AD030008F3
:10001000AD030008AD030008AD03000800000000B8
:10002000000000000000000000000000AD03000818
:10003000AD03000800000000AD030008AD03000898
:10004000AD030008AD030008AD030008AD030008D0
:10005000AD030008AD030008AD030008AD030008C0
:10006000AD030008AD030008AD030008AD030008B0
:10007000AD030008AD030008AD030008AD030008A0
:10008000AD030008AD030008AD0300080000000048
:10009000000000000000000000000000AD030008A8
:1000A000AD030008AD030008AD030008AD03000870
:1000B000AD030008AD030008AD030008AD03000860
:1000C000AD030008AD030008AD030008AD03000850
:1000D000AD030008AD030008AD03000800000000F8
:1000E000AD030008AD030008AD03000800000000E8
:1000F000000000000000000000000000AD03000848
:1001000000000000AD030008AD030008AD030008C7
:1001100000000000000000000000000000000000DF
:10012000AD030008AD030008AD030008AD030008EF
:10013000AD03000800000000000000000000000007
:10014000000000000000000000000000AD030008F7
:10015000AD030008AD030008AD030008AD030008BF
:10016000AD030008AD03000800000000000000001F
:10017000000000000000000000000000000000007F
:1001800000000000AD0300080000000000000000B7
:04019000AD030008B3
:1001940010B5054C237833B9044B13B10448AFF3BD
:1001A40000800123237010BD200000200000000007
:1001B400B003000808B5034B1BB103490348AFF370
:1001C400008008BD0000000024000020B0030008E7
:1001D40080B500AF00F007F800F046F800F070F8C2
:1001E40000F054F8FCE780B400AF1C4B1B681A689D
:1001F4001A4B1B6822F480321A60184B1B681A6869
:10020400164B1B6842F480321A6000BF134B1B6804
:100214001B6803F40033002BF8D0114B1B681A68D9
:100224000F4B1B6822F003021A600D4B1B681A68FF
:100234000B4B1B6842F001021A6000BF084B1B689D
:100244001B68084B1B681A68064B1B6842F00402C3
:100254001A6000BFBD465DF8047B704700000020B3
:10026400040000200800002080B400AF064B1B6887
:100274001A68054B1B6842F080621A6000BFBD46D5
:100284005DF8047B704700BF0C00002080B500AF10
:100294000A4B1B681A68094B1B6822F400521A6047
:1002A40000F00EF8054B1B681A68044B1B6842F4F7
:1002B40000521A6000F004F800BF80BD1000002056
:1002C40080B400AF104B1B681A680F4B1B6842F0D8
:1002D40001021A600C4B1B681A680B4B1B6842F036
:1002E40004021A60094B1B68094A1A6000BF064BD6
:1002F4001B681B6803F48033002BF8D000BF00BFD9
:10030400BD465DF8047B70471400002018000020EF
:100314009F25260070B50D4D0D4C641BA4100026BE
:10032400A64209D10B4D0C4C00F040F8641BA410FC
:100334000026A64205D170BD55F8043B9847013606
:10034400EEE755F8043B98470136F2E7C803000886
:10035400C8030008C8030008CC030008DFF830D045
:100364000C480D490D4A002302E0D458C45004330C
:10037400C4188C42F9D30A4A0A4C002301E01360E2
:100384000432A242FBD3FFF7C5FFFFF721FF7047FA
:10039400000001200000002020000020D0030008FD
:1003A400200000203C000020FEE70000F8B500BF5C
:1003B400F8BC08BC9E467047F8B500BFF8BC08BC42
:0403C4009E4670479A
:0403C800B90100086F
:0403CC00950100088F
:1003D000003802400838024030380240000802402D
:1003E0001408024010E000E014E000E018E000E033
:04000005080003618B
:00000001FF
